:100000000C945D000C9485000C9485000C94850084
:100010000C9485000C9485000C9485000C9485004C
:100020000C9485000C9485000C9485000C9485003C
:100030000C9485000C9485000C9485000C9485002C
:100040000C9433040C9485000C9485000C9485006A
:100050000C9485000C9485000C9485000C9485000C
:100060000C9485000C9485000000000024002700FB
:100070002A0000000000250028002B0004040404CE
:100080000404040402020202020203030303030342
:10009000010204081020408001020408102001021F
:1000A00004081020000000080002010000030407FB
:1000B0000000000000000000C70611241FBECFEFA3
:1000C000D8E0DEBFCDBF11E0A0E0B1E0E0EBF2E1AF
:1000D00002C005900D92A034B107D9F721E0A0E449
:1000E000B1E001C01D92A537B207E1F710E0CDE500
:1000F000D0E004C02197FE010E944B09CC35D10706
:10010000C9F70E947D040C9456090C940000CF920C
:10011000DF92EF92FF920F931F93CF93DF936C01C7
:100120007A018B01C0E0D0E0CE15DF0589F0D8015F
:100130006D918D01D601ED91FC910190F081E02D42
:10014000C6010995892B11F47E0102C02196ECCFDE
:10015000C701DF91CF911F910F91FF90EF90DF903A
:10016000CF90089590E0FC01EC55FF4F3491FC01D5
:10017000E057FF4F2491FC01E458FF4FE491EE2338
:1001800009F43BC0332339F1333091F038F4313086
:10019000A9F0323001F584B58F7D12C0373091F06F
:1001A0003830A1F03430B9F4809180008F7D03C0E5
:1001B000809180008F77809380000DC084B58F7709
:1001C00084BD09C08091B0008F7703C08091B000DA
:1001D0008F7D8093B000F0E0EE0FFF1FEE58FF4FD1
:1001E000A591B4918FB7F894EC91611103C020955B
:1001F0002E2301C02E2B2C938FBF0895CF93DF9316
:1002000090E0FC01E057FF4F2491FC01E458FF4FC0
:100210008491882361F190E0880F991FFC01E859CF
:10022000FF4FC591D491FC01EE58FF4FA591B491B9
:10023000611109C09FB7F894888120958223888333
:10024000EC912E230BC0623061F49FB7F894388193
:10025000822F809583238883EC912E2B2C939FBF34
:1002600006C08FB7F894E8812E2B28838FBFDF91CB
:10027000CF9108958E3008F08E50877080648093FF
:100280007C0080917A00806480937A0080917A006B
:1002900086FDFCCF809178002091790090E0922B30
:1002A00008953FB7F8948091450190914601A0913F
:1002B0004701B091480126B5A89B05C02F3F19F012
:1002C0000196A11DB11D3FBFBA2FA92F982F8827D6
:1002D000820F911DA11DB11DBC01CD0142E0660F31
:1002E000771F881F991F4A95D1F708958F929F9283
:1002F000AF92BF92CF92DF92EF92FF926B017C019F
:100300000E9451014B015C01C114D104E104F104CC
:10031000F1F00E945101DC01CB0188199909AA0969
:10032000BB09883E9340A105B10570F321E0C21AD4
:10033000D108E108F10888EE880E83E0981EA11C20
:10034000B11CC114D104E104F10419F7DDCFFF9011
:10035000EF90DF90CF90BF90AF909F908F900895D7
:10036000CF93DF93EC0160E08E810E94B20061E0E8
:100370008E810E94B20060E08E810E94B2008BE804
:1003800091E00197F1F7DF91CF910895CF92DF923D
:10039000EF92FF920F931F93CF93DF937C016C0139
:1003A00087E0C80ED11CC0E0D0E0062F10E0B801F5
:1003B0000C2E02C0759567950A94E2F76170F601FC
:1003C00081916F010E94B2002196C430D10579F766
:1003D000C701DF91CF911F910F91FF90EF90DF90B8
:1003E000CF900C94B001CF92DF92EF92FF920F93D7
:1003F0001F93CF93DF93EC01F62E642F8C810E9424
:10040000B2008D818F3F19F060E00E94B2008F85AD
:100410000F2D10E084FF25C06E0187E0C80ED11CAF
:10042000E12CF12CB8010E2C02C0759567950A9449
:10043000E2F76170F60181916F010E94B200FFEF57
:10044000EF1AFF0A88E0E816F10461F7CE01DF91A8
:10045000CF911F910F91FF90EF90DF90CF900C9470
:10046000B001B80184E0759567958A95E1F7CE01F2
:100470000E94C6016F2DCE01DF91CF911F910F9188
:10048000FF90EF90DF90CF900C94C60141E00E9466
:10049000F30181E090E0089540E00C94F301843092
:1004A00008F083E090917001891710F08FEF890FA9
:1004B000E82FF0E0E35AFE4F648960688DE591E033
:1004C0000C944C0261E00E944C028BE39FE1019787
:1004D000F1F70895EF92FF920F931F93CF93DF935D
:1004E000EC01623018F08F8588608F876B8B1C8AD7
:1004F00080E48D8B80E18E8B80E58F8B61E08C8139
:100500000E94FE008D818F3F19F061E00E94FE0085
:1005100061E08E810E94FE007E0187E0E80EF11C02
:1005200000E010E08F8584FD03C084E090E002C00D
:1005300088E090E0081719074CF461E0F701819119
:100540007F010E94FE000F5F1F4FECCF8BE39DE009
:100550000197F1F760E08C810E94B20060E08E812B
:100560000E94B2008D818F3F19F060E00E94B200BE
:100570006F8564FD1DC063E0CE010E94C6010BE4DF
:1005800016E4C8010197F1F763E0CE010E94C601AD
:10059000C8010197F1F763E0CE010E94C60183E52F
:1005A00092E00197F1F762E0CE010E94C60116C009
:1005B0006062CE010E944C028BE496E40197F1F751
:1005C0006F856062CE010E944C0283E592E0019744
:1005D000F1F76F856062CE010E944C026F85606208
:1005E000CE010E944C0284E0888B6CE0CE010E9418
:1005F0004C02CE010E94620282E0898B66E0CE014D
:10060000DF91CF911F910F91FF90EF900C944C02CE
:10061000009769F0FC0101900020E9F73197AF01E4
:10062000481B590BBC018DE591E00C94870080E0DC
:1006300090E008950C9408038F929F92AF92BF921E
:100640000F931F93CF93DF93CDB7DEB7A1970FB66C
:10065000F894DEBF0FBECDBF19A2423008F44AE0C5
:100660008E010F5D1F4F842E912CA12CB12CA50162
:1006700094010E942909E62FB901CA01015011090C
:10068000EA3014F4E05D01C0E95CD801EC93232B5F
:10069000242B252B61F7C8010E940803A1960FB6F1
:1006A000F894DEBF0FBECDBFDF91CF911F910F91A8
:1006B000BF90AF909F908F9008958F929F92AF922E
:1006C000BF92CF92DF92EF92FF92CF93DF936B01B5
:1006D0007C019B01AC010E942409882319F088E069
:1006E00091E027C046015701E894B7F82FEF3FEF9C
:1006F0004FE75FE7C501B4010E94240981110DC0D5
:100700002FEF3FEF4FE75FE7C501B4010E945307AA
:1007100018161CF48CE091E00CC02FEF3FEF4FE770
:100720005FE4C701B6010E94B208181674F480E1B4
:1007300091E0DF91CF91FF90EF90DF90CF90BF904D
:10074000AF909F908F900C9408032FEF3FEF4FE7EF
:100750005FECC701B6010E94530787FDE8CF20E098
:1007600030E0A901C701B6010E94530787FF11C0FD
:10077000E0915D01F0915E010190F081E02D6DE26C
:100780008DE591E00995EC01F7FAF094F7F8F09413
:1007900002C0C0E0D0E02AE037ED43EA5BE3C701E6
:1007A000B6010E94E7064B015C010E94D1076B0174
:1007B0007C010E9400089B01AC01C501B4010E94AC
:1007C000E6064B015C014AE0C701B6010E941C032A
:1007D000C80FD91FE0915D01F0915E010190F08199
:1007E000E02D6EE28DE591E00995C80FD91F20E05C
:1007F00030E040E251E4C501B4010E94B7084B016A
:100800005C010E94D1076B01E12CF12C4AE0C70189
:10081000B6010E941C03C80FD91FC701B6010E9470
:1008200000089B01AC01C501B4010E94E60620E06E
:1008300030E040E251E40E94B7080E94D10780E016
:1008400090E04AE00E941C038C0F9D1FDF91CF9126
:10085000FF90EF90DF90CF90BF90AF909F908F90E0
:1008600008950E9451091F920F920FB60F92112402
:100870002F933F938F939F93AF93BF9380914101A9
:1008800090914201A0914301B09144013091400107
:1008900023E0230F2D3720F40196A11DB11D05C0C3
:1008A00026E8230F0296A11DB11D209340018093DD
:1008B000410190934201A0934301B0934401809180
:1008C000450190914601A0914701B09148010196E0
:1008D000A11DB11D8093450190934601A09347014E
:1008E000B0934801BF91AF919F918F913F912F910C
:1008F0000F900FBE0F901F901895789484B582606A
:1009000084BD84B5816084BD85B5826085BD85B5B3
:10091000816085BD80916E00816080936E00109231
:1009200081008091810082608093810080918100AC
:10093000816080938100809180008160809380003D
:100940008091B10084608093B1008091B00081609B
:100950008093B00080917A00846080937A008091C7
:100960007A00826080937A0080917A00816080931F
:100970007A0080917A00806880937A001092C1009A
:1009800061E08DE00E94FE0061E08CE00E94FE00CC
:1009900061E08BE00E94FE0061E08AE00E94FE00C0
:1009A00061E089E00E94FE0061E088E00E94FE00B4
:1009B00061E083E00E94FE0061E084E00E94FE00AE
:1009C00061E085E00E94FE0061E086E00E94FE009A
:1009D00061E087E00E94FE0061E082E00E94FE008C
:1009E00060E080E10E94FE0060E082E10E94FE0083
:1009F00062E08DE591E00E946A028DE591E00E943F
:100A0000620280E00E944F0284E191E00E941A039A
:100A100068EE73E080E090E00E9476018DE591E061
:100A20000E946202C0E0D0E080E10E943A01BC0175
:100A3000990F880B990B0E940208609359017093DB
:100A40005A0180935B0190935C012AE038E240EA0E
:100A50005BE30E94B70820E037E345E759E40E94D2
:100A6000B70820E030E849E855E40E9458076B01D8
:100A70007C016093550170935601809357019093C8
:100A8000580120E030E0A9010E94B20820E030E0E7
:100A900040E05FE387FD05C0C701B6010E94E7069D
:100AA00004C0C701B6010E94E6060E94CA070E9460
:100AB0000208609351017093520180935301909307
:100AC000540182E10E943A01BC01990F880B990BF5
:100AD0000E9402082AE038E240EA5BE30E94B7087D
:100AE00020E037E345E759E40E94B70820E030E80A
:100AF00049E855E40E94580760934D0170934E01F8
:100B000080934F019093500120EA35E940E85FE37C
:100B10000E94B7086B017C0120E030E0A9010E942F
:100B2000B20820E030E040E05FE387FD05C0C70188
:100B3000B6010E94E70604C0C701B6010E94E6069E
:100B40000E94CA070E9402086093490170934A01FB
:100B500080934B0190934C0180E00E944F0285E20C
:100B600091E00E941A0360915101709152018091AD
:100B70005301909154010E945D0381E391E00E9432
:100B80001A0381E00E944F0283E391E00E941A035E
:100B90006091490170914A0180914B0190914C0103
:100BA0000E945D0381E391E00E941A03C09051010D
:100BB000D0905201E0905301F090540120E030E0D9
:100BC00048EC52E4C701B6010E94B20887FD18C084
:100BD00020E030E044E353E4C701B6010E9453072C
:100BE000181674F060E087E00E94B20060E086E0D2
:100BF0000E94B20061E085E00E94B20060E049C05E
:100C000020E030E045E353E4C701B6010E94B2089A
:100C100087FD0AC020E030E042E553E4C701B60199
:100C20000E9453071816F4F620E030E042E553E442
:100C3000C701B6010E94B20887FD0AC020E030E07B
:100C400040E753E4C701B6010E945307181654F653
:100C500020E030E041E753E4C701B6010E94B2084A
:100C600087FD41C020E030E047E853E4C701B6010A
:100C70000E9453071816BCF160E087E00E94B200A2
:100C800060E086E00E94B20060E085E00E94B20071
:100C900061E084E00E94B20060E083E00E94B20064
:100CA00080E00E944F0285E291E00E941A03609169
:100CB00051017091520180915301909154010E9411
:100CC0005D0381E00E944F0283E391E00E941A03DA
:100CD0006091490170914A0180914B0190914C01C2
:100CE0000E945D034EC020E030E847E853E4C701AE
:100CF000B6010E94B20887FD1CC020E030E04CE83D
:100D000053E4C701B6010E945307181694F060E03F
:100D100087E00E94B20060E086E00E94B20060E0DE
:100D200085E00E94B20060E084E00E94B20061E0D1
:100D3000B4CF60E087E00E94B20060E086E00E94ED
:100D4000B20060E085E00E94B20060E084E00E94B2
:100D5000B20060E083E00E94B20061E082E00E94A5
:100D6000B20062E370E080E090E00E94760160E013
:100D700082E00E94B20062E370E080E090E00E94B6
:100D80007601209709F450CE0E9400004DCEEDE58B
:100D9000F1E01382128284E091E0918380838DE000
:100DA00084838FEF85838CE086838BE087838AE062
:100DB000808789E0818788E082871386148615867C
:100DC0001686178661E0CF010C946A025058BB2743
:100DD000AA270E94FE060C9478080E946A0838F040
:100DE0000E94710820F039F49F3F19F426F40C9406
:100DF00067080EF4E095E7FB0C946108E92F0E9468
:100E0000890858F3BA17620773078407950720F01B
:100E100079F4A6F50C94AB080EF4E0950B2EBA2FDE
:100E2000A02D0B01B90190010C01CA01A0011124F0
:100E3000FF27591B99F0593F50F4503E68F11A169C
:100E4000F040A22F232F342F4427585FF3CF46952D
:100E500037952795A795F0405395C9F77EF41F164F
:100E6000BA0B620B730B840BBAF09150A1F0FF0F19
:100E7000BB1F661F771F881FC2F70EC0BA0F621F05
:100E8000731F841F48F4879577956795B795F795F5
:100E90009E3F08F0B0CF9395880F08F09927EE0F8A
:100EA0009795879508950E943D0808F481E008957C
:100EB0000E946C070C9478080E94710858F00E94F8
:100EC0006A0840F029F45F3F29F00C946108511141
:100ED0000C94AC080C9467080E94890868F3992365
:100EE000B1F3552391F3951B550BBB27AA27621726
:100EF0007307840738F09F5F5F4F220F331F441F33
:100F0000AA1FA9F335D00E2E3AF0E0E832D0915066
:100F10005040E695001CCAF72BD0FE2F29D0660F53
:100F2000771F881FBB1F261737074807AB07B0E896
:100F300009F0BB0B802DBF01FF2793585F4F3AF09C
:100F40009E3F510578F00C9461080C94AC085F3F0B
:100F5000E4F3983ED4F3869577956795B795F79522
:100F60009F5FC9F7880F911D9695879597F908950A
:100F7000E1E0660F771F881FBB1F621773078407A6
:100F8000BA0720F0621B730B840BBA0BEE1F88F7B5
:100F9000E09508950E94D1076894B1110C94AC08B3
:100FA00008950E94910888F09F5798F0B92F9927CB
:100FB000B751B0F0E1F0660F771F881F991F1AF044
:100FC000BA95C9F714C0B13091F00E94AB08B1E0F6
:100FD00008950C94AB08672F782F8827B85F39F0F5
:100FE000B93FCCF3869577956795B395D9F73EF4DD
:100FF00090958095709561957F4F8F4F9F4F089585
:10100000E89409C097FB3EF49095809570956195A2
:101010007F4F8F4F9F4F9923A9F0F92F96E9BB2758
:101020009395F695879577956795B795F111F8CFD4
:10103000FAF4BB0F11F460FF1BC06F5F7F4F8F4F3F
:101040009F4F16C0882311F096E911C0772321F035
:101050009EE8872F762F05C0662371F096E8862FCD
:1010600070E060E02AF09A95660F771F881FDAF724
:10107000880F9695879597F90895990F0008550F51
:10108000AA0BE0E8FEEF16161706E807F907C0F00E
:1010900012161306E407F50798F0621B730B840B16
:1010A000950B39F40A2661F0232B242B252B21F4F0
:1010B00008950A2609F4A140A6958FEF811D811D90
:1010C000089597F99F6780E870E060E008959FEFCA
:1010D00080EC089500240A941616170618060906CF
:1010E000089500240A94121613061406050608959E
:1010F000092E0394000C11F4882352F0BB0F40F426
:10110000BF2B11F460FF04C06F5F7F4F8F4F9F4F65
:10111000089557FD9058440F551F59F05F3F71F0E7
:101120004795880F97FB991F61F09F3F79F087954E
:101130000895121613061406551FF2CF4695F1DFD7
:1011400008C0161617061806991FF1CF8695710567
:10115000610508940895E894BB2766277727CB019B
:1011600097F908950E943D0808F48FEF08950E94B2
:10117000CA080C9478080E946A0838F00E94710826
:1011800020F0952311F00C9461080C946708112449
:101190000C94AC080E94890870F3959FC1F3950FD9
:1011A00050E0551F629FF001729FBB27F00DB11DEB
:1011B000639FAA27F00DB11DAA1F649F6627B00D7B
:1011C000A11D661F829F2227B00DA11D621F739F64
:1011D000B00DA11D621F839FA00D611D221F749F72
:1011E0003327A00D611D231F849F600D211D822FB9
:1011F000762F6A2F11249F5750409AF0F1F08823E0
:101200004AF0EE0FFF1FBB1F661F771F881F91500C
:101210005040A9F79E3F510580F00C9461080C9452
:10122000AC085F3FE4F3983ED4F3869577956795D5
:10123000B795F795E7959F5FC1F7FE2B880F911D36
:101240009695879597F908950E943D08880B990B0C
:101250000895A1E21A2EAA1BBB1BFD010DC0AA1FF7
:10126000BB1FEE1FFF1FA217B307E407F50720F00F
:10127000A21BB30BE40BF50B661F771F881F991F8A
:101280001A9469F760957095809590959B01AC01D3
:10129000BD01CF010895EE0FFF1F0590F491E02DE1
:1012A000099481E090E0F8940C945609F894FFCFEB
:1012B00000000000460287006E616E00696E6600E5
:1012C0006F76660020494E495449414C495A494E6F
:1012D000472E2E2E00494E50555420564F4C542028
:1012E0000056004F555450555420564F4C54200032
:107E0000112484B714BE81FFF0D085E080938100F7
:107E100082E08093C00088E18093C10086E0809377
:107E2000C20080E18093C4008EE0C9D0259A86E02C
:107E300020E33CEF91E0309385002093840096BBD3
:107E4000B09BFECF1D9AA8958150A9F7CC24DD24C4
:107E500088248394B5E0AB2EA1E19A2EF3E0BF2EE7
:107E6000A2D0813461F49FD0082FAFD0023811F036
:107E7000013811F484E001C083E08DD089C08234E0
:107E800011F484E103C0853419F485E0A6D080C0E4
:107E9000853579F488D0E82EFF2485D0082F10E0AE
:107EA000102F00270E291F29000F111F8ED06801E7
:107EB0006FC0863521F484E090D080E0DECF843638
:107EC00009F040C070D06FD0082F6DD080E0C81688
:107ED00080E7D80618F4F601B7BEE895C0E0D1E017
:107EE00062D089930C17E1F7F0E0CF16F0E7DF06D8
:107EF00018F0F601B7BEE89568D007B600FCFDCFD4
:107F0000A601A0E0B1E02C9130E011968C91119780
:107F100090E0982F8827822B932B1296FA010C0160
:107F200087BEE89511244E5F5F4FF1E0A038BF0790
:107F300051F7F601A7BEE89507B600FCFDCF97BE46
:107F4000E89526C08437B1F42ED02DD0F82E2BD052
:107F50003CD0F601EF2C8F010F5F1F4F84911BD097
:107F6000EA94F801C1F70894C11CD11CFA94CF0C13
:107F7000D11C0EC0853739F428D08EE10CD085E9AC
:107F80000AD08FE07ACF813511F488E018D01DD067
:107F900080E101D065CF982F8091C00085FFFCCF94
:107FA0009093C60008958091C00087FFFCCF809118
:107FB000C00084FD01C0A8958091C6000895E0E648
:107FC000F0E098E1908380830895EDDF803219F02E
:107FD00088E0F5DFFFCF84E1DECF1F93182FE3DFCA
:107FE0001150E9F7F2DF1F91089580E0E8DFEE27F6
:047FF000FF270994CA
:027FFE00040479
:0400000300007E007B
:00000001FF
